:03000000020003F8
:0C000300787FE4F6D8FD75810B02004AFE
:04011A00020A019044
:1000FF0075B0FF75A0FF7590FF7580FFAF09AE0853
:0B010F00EF1FAC0670011E4C70F622C2
:10008F00850A08850B09D3E5099400E50864809477
:10009F008040231200FFE4F5B0F5A0F590F580E560
:1000AF000B9509FFE50A9508FE12010FE5091509E1
:1000BF0070D4150880D0E4F508F509C3E509950B50
:1000CF00E50A6480F8E50864809850B41200FFE4F4
:1000DF00F5B0F5A0F590F580C3E50B9509FFE50A9E
:1000EF009508FE12010F0509E50970CF050880CBB1
:10000F0002008FE493A3F8E493A34003F68001F278
:10001F0008DFF48029E493A3F85407240CC8C333F2
:10002F00C4540F4420C8834004F456800146F6DFC1
:10003F00E4800B010204081020408090011AE47E36
:10004F00019360BCA3FF543F30E509541FFEE493B6
:10005F00A360010ECF54C025E060A840B8E493A37D
:10006F00FAE493A3F8E493A3C8C582C8CAC583CAA8
:10007F00F0A3C8C582C8CAC583CADFE9DEE780BE60
:01011E0000E0
:00000001FF
