:03000000020D31BD
:0C0D3100787FE4F6D8FD758151020D7842
:100E250008087F3F1F0F070301000810FEFCF8F0BC
:100E3500E0C08000081980C0E0F0F8FCFEFF082142
:100E45000103070F1F3F7FFF08297FBFDFEFF7FB78
:100E5500FDFE083155555555555555550839AAAA1C
:100E6500AAAAAAAAAAAA08413F9FCFEFF3F9FCFEB6
:0A0E750008491F8F37E3F1F8F3FE80
:0C10520074082551F8E6F5B07F707E1799
:0B105E00EF1FAC0670011E4C70F62264
:100A2500E4F55174292551F8E6F5B07F407E1F1293
:100A3500105E75B0FF0551E551C3940840E5E4F536
:100A45005174292551F8E6F5907F407E1F12105EFE
:100A55007590FF0551E551C3940840E5E4F55174DF
:100A6500292551F8E6F5807F407E1F12105E7580BE
:100A7500FF0551E551C3940840E5E4F55174292576
:100A850051F8E6F5A07F407E1F12105E75A0FF05A8
:100A950051E551C3940840E5E4F551742912105409
:100AA50075B0FF0551E551C3940840EFE4F5517465
:100AB500292551F8E6F59012105A7590FF0551E574
:100AC50051C3940840E9E4F55174292551F8E6F538
:100AD5008012105A7580FF0551E551C3940840E90D
:100AE500E4F55174292551F8E6F5A012105A75A0C0
:100AF500FF0551E551C3940840E9E4F551742925F2
:100B050051F8E6F5B07FA07E0F12105E75B0FF05B7
:100B150051E551C3940840E5E4F55174292551F890
:100B2500E6F5907FA07E0F12105E7590FF0551E5EA
:100B350051C3940840E5E4F55174292551F8E6F5CB
:100B4500807FA07E0F12105E7580FF0551E551C3B1
:100B5500940840E5E4F55174292551F8E6F5A07FA0
:100B6500A07E0F12105E75A0FF0551E551C39408D4
:100B750040E5E4F518E4F55174292551F8E6F5B09A
:100B85007FD07E0712105E75B0FF0551E551C39405
:100B95000840E5E4F55174292551F8E6F5907FD034
:100BA5007E0712105E7590FF0551E551C39408400C
:100BB500E5E4F55174292551F8E6F5807FD07E07E7
:100BC50012105E7580FF0551E551C3940840E5E4B8
:100BD500F55174292551F8E6F5A07FD07E0712104E
:100BE5005E75A0FF0551E551C3940840E50518E57C
:0A0BF50018C394035003020B7A2288
:10080000E4F518E4F55174082551F8E6F5B07FD009
:100810007E0712105E0551E551C3940840E8E4F5E7
:100820005174082551F8E6F5907FD07E0712105ECE
:100830000551E551C3940840E8E4F5517408255189
:10084000F8E6F5807FD07E0712105E0551E551C3B2
:10085000940840E8E4F55174082551F8E6F5A07FC6
:10086000D07E0712105E0551E551C3940840E8752B
:10087000A0FF7580FF7590FF75B0FF0518E518C3E0
:1008800094025003020803E4F55174082551F8E678
:10089000F5B07FA07E0F12105E0551E551C394089C
:1008A00040E8E4F55174082551F8E6F5907FA07E04
:1008B0000F12105E0551E551C3940840E8E4F5516C
:1008C00074082551F8E6F5807FA07E0F12105E05B2
:1008D00051E551C3940840E8E4F55174082551F8F6
:1008E000E6F5A07FA07E0F12105E0551E551C3947E
:1008F0000840E875A0FF7580FF7590FF75B0FFE4B4
:10090000F5511210520551E551C3940840F4E4F535
:100910005174082551F8E6F59012105A0551E55129
:10092000C3940840ECE4F55174082551F8E6F580CD
:1009300012105A0551E551C3940840ECE4F5517486
:10094000082551F8E6F5A012105A0551E551C39457
:100950000840EC75A0FF7580FF7590FF75B0FFE44F
:10096000F55174082551F8E6F5B07F407E1F12104E
:100970005E0551E551C3940840E8E4F5517408253B
:1009800051F8E6F5907F407E1F12105E0551E5514B
:10099000C3940840E8E4F55174082551F8E6F58061
:1009A0007F407E1F12105E0551E551C3940840E858
:1009B000E4F55174082551F8E6F5A07F407E1F123A
:1009C000105E0551E551C3940840E87FC07ED41203
:1009D000105EE4F55174192551F8E6F5B07421253F
:1009E00051F8E6F5A07FE07E2E12105E0551E5512C
:1009F000C3940840E0E4F55174192551F8E6F590E8
:100A000074212551F8E6F5807FE07E2E12105E05F8
:100A100051E551C3940840E075A0FF7580FF7590C3
:050A2000FF75B0FF228C
:100FF300E4F518E4F5A0F580F590F5B07F407E9C0C
:1010030012105E75A0FF7580FF7590FF75B0FF7FAE
:10101300407E9C12105E0518E518C3940440D42248
:100DBD00E4F55174102551F8E6F5A012105A0551BD
:100DCD00E551C3940840ECE4F55174102551F8E653
:100DDD00F58012105A0551E551C3940840EC7FC0BF
:100DED007ED412105EE4F5511210520551E551C337
:100DFD00940840F4E4F55174082551F8E6F5901285
:100E0D00105A0551E551C3940840EC75B0FF75A01B
:080E1D00FF7590FF7580FF22B4
:100F7000E4F51874312551F8E6F5A0F580F590F503
:100F8000B07FE07E2E12105E74312551F8E6F4F544
:100F9000A0F580F590F5B07FE07E2E12105E05186A
:100FA000E518C3940A40CC75A0FF7580FF7590FFCB
:040FB00075B0FF22F7
:100EDA00E4F518E4F55174082551F8E6F5A0F58013
:100EEA00F5901210580551E551C3940840E8E4F50D
:100EFA005174192551F8E6F5A0F580F590121058AD
:100F0A000551E551C3940840E875A0FF7580FF7547
:0F0F1A0090FF75B0FF0518E518C3940440B52289
:100F2900E4F55174082551F8E6F5B074102551F827
:100F3900E6F5A07FE07E2E12105E0551E551C394BF
:100F49000840E0E4F55174082551F8E6F59074106D
:100F59002551F8E6F5807FE07E2E12105E0551E5F9
:070F690051C3940840E0228F
:100E8000E4F518E4F5A0F580F590F5B075A0FF75D0
:100E900090FF7580FF75B0FF7FE07E2E12105EE43C
:100EA000F580F5B07FE07E2E12105E75A0FF759084
:100EB000FF7FE07E2E12105EE4F5A0F5907FE07ECD
:100EC0002E12105E75A0FF7580FF7590FF75B0FF44
:0A0ED0000518E518C3940540AA2296
:100BFF00E4F55174102551F8E6F5A012105A05517D
:100C0F00E551C3940840ECE4F55174102551F8E612
:100C1F00F58012105A0551E551C3940840ECE4F5E4
:100C2F005174102551F8E6F59012105A0551E551FF
:100C3F00C3940840ECE4F55174101210540551E5BB
:100C4F0051C3940840F2E4F580F590F5A0F5B0F5A6
:100C5F005174192551F8E6F5B074212551F8E6F5D0
:100C6F00A07FE07E2E12105E0551E551C39408401F
:100C7F00E0E4F55174192551F8E6F59074212551EA
:100C8F00F8E6F5807FE07E2E12105E0551E551C328
:050C9F00940840E02272
:100CA400E4F55174102551F8E6F59074082551F8CF
:100CB400E6F5807F587E1B12105E0551E551C39402
:100CC4000840E0E4F55174102551F8E6F5B07408D5
:100CD4002551F8E6F5A07F587E1B12105E0551E5FC
:100CE40051C3940840E0E4F55174212551F8E6F528
:100CF4009074192551F8E6F5807F587E1B12105E1A
:100D04000551E551C3940840E0E4F551742125519F
:100D1400F8E6F5B074192551F8E6F5A07F587E1B66
:0D0D240012105E0551E551C3940840E02215
:100FB400E4F518E4F5A0F5B07F107E2712105E75F5
:100FC400A0FF75B0FF7F107E2712105EE4F590F548
:100FD400807F107E2712105E7590FF7580FF7F1052
:0F0FE4007E2712105E0518E518C3940340C5223E
:10102300120A25120800120FF3120DBD120F7012CF
:101033000EDA120F29120E80120FB4120BFF120CCC
:0F104300A4120F70120EDA120FF312080080D1F0
:100D3D00021023E493A3F8E493A34003F68001F299
:100D4D0008DFF48029E493A3F85407240CC8C333B7
:100D5D00C4540F4420C8834004F456800146F6DF86
:100D6D00E4800B0102040810204080900E25E47EE3
:100D7D00019360BCA3FF543F30E509541FFEE4937B
:100D8D00A360010ECF54C025E060A840B8E493A342
:100D9D00FAE493A3F8E493A3C8C582C8CAC583CA6D
:100DAD00F0A3C8C582C8CAC583CADFE9DEE780BE25
:010E7F000072
:00000001FF
